S02B0000433A2F55736572732F6C656F2D636F6D70757461646F722F53696D706C696369747953747564696F6E
S3150800000000100020610400080D4F00080D4F00087D
S315080000100D4F00080D4F00080D4F00080D4F000842
S315080000200D4F00080D4F00080D4F00080D4F000832
S315080000300D4F00080D4F00080D4F00080D4F000822
S315080000400D4F00080D4F00080D4F00080D4F000812
S315080000500D4F00080D4F00080D4F00080D4F000802
S315080000600D4F00080D4F00080D4F0008C53E00084B
S315080000709B5300080D4F00080D4F00080D4F000850
S315080000800D4F00080D4F00080D4F00080D4F0008D2
S315080000900D4F0008510C00080D4F00080D4F0008C1
S315080000A00D4F000891080008710800080D4F000858
S315080000B00D4F00080D4F00080D4F00080D4F0008A2
S315080000C00D4F00080D4F00080D4F00080D4F000892
S315080000D00D4F00080D4F00080D4F00080D4F000882
S315080000E00D4F00080D4F00080D4F00080D4F000872
S315080000F0CD5000080D4F00080D4F00080D4F0008A1
S315080001000D4F00080D4F00080D4F00080D4F000851
S315080001100D4F00080D4F00080D4F00080D4F000841
S315080001200D4F00080D4F00080D4F00080D4F000831
S315080001300D4F00080D4F00080D4F00080D4F000821
S315080001400D4F00080D4F00080D4F00087B6400088E
S315080001500D4F00080D4F00080D4F00080D4F000801
S315080001600D4F00080D4F00080D4F00080D4F0008F1
S31508000170013800D0FCE770470348044B834202D09D
S31508000180034B03B118477047441600204416002055
S3150800019000000000064B0749C91A891048BF0131FB
S315080001A0491003D0044B0BB101481847704700BFEC
S315080001B044160020441600200000000010B5064C26
S315080001C0237843B9FFF7D8FF044B13B10448AFF3BC
S315080001D000800123237010BD501500200000000088
S315080001E04876000808B5054B1BB105490548AFF325
S315080001F00080BDE80840FFF7CDBF00BF0000000043
S315080002000010002048760008A3F5803A704700BF22
S31508000210174B002B08BF134B9D46FFF7F5FF002130
S315080002208B460F461348144A121A05F034F90E4B3A
S31508000230002B00D098470D4B002B00D09847002084
S31508000240002104000D000D48002802D00C48AFF329
S31508000250008004F071FA2000290003F0DFFE04F0A4
S31508000260B1F800BF00000800000000000000000010
S3150800027000100020001000208C150020000000004F
S31508000280000000002DE9F0415D4C92B009AD94E8FC
S315080002900F0085E80F000DAA174604F1100304F1B4
S315080002A0200C164618685968083303C66345324653
S315080002B0F7D11868534B08A93060187906F03EF84C
S315080002C0514806F040F8514806F03DF84FF480735F
S315080002D008984F49ADF83430814228BF01460C973B
S315080002E002F0E8F9294602250A904A4802F0F6F88B
S315080002F0484801F095FF474802F01EF8454801F0C6
S31508000300DFFFB4F82480012204216846ADF8008096
S3150800031000F02CFAE78C0022012101A8ADF8047040
S3150800032000F024FA268D0122042102A8ADF80860FF
S3150800033000F01CFA0122042103A8374CADF80C5032
S3150800034000F014FA354B4FF44870C4F8C8344FF02F
S315080003500213C4F8C43403F58033C4F8CC341C2320
S31508000360C4F8B43403F0EEFC07A8ADF81C5000F04E
S3150800037059FA142003F0E6FC07A8ADF81C5000F063
S315080003802BFA232003F0DEFC07A8ADF81C5000F07A
S3150800039049FAB9211F4802F06FF907A8ADF81C50B1
S315080003A000F01AFA002204A81146ADF8108000F0F1
S315080003B0DDF9002205A81146ADF8147000F0D6F94B
S315080003C00122002106A8ADF8186000F0CFF9012235
S315080003D0002107A8ADF81C5000F0C8F90D4802F036
S315080003E02DF800230948C4F8B434C4F8C834C4F84E
S315080003F0C434C4F8CC3405F0A9FF12B0BDE8F081C6
S31508000400D86400088C6E0008746E0008786E0008C0
S31508000410E070720000000A5000C00350020001009C
S3150800042008B5044805F08FFF04F093FFBDE80840BF
S31508000430FFF728BF746E0008014805F084BF00BFA7
S31508000440746E00080348044A0449121A921004F00C
S315080004505EBD00BF70010008700100088C15002001
S3150800046008B5154B83F30A8800F030F8FFF7EAFF62
S31508000470124B13498B4212D30020124B12498B425E
S3150800048018D3FFF7C5FE186850F82240586840F898
S315080004902240013298688242F5D30C33EAE70022FB
S315080004A0F8E71C6844F8220001325C68A242F8D3D7
S315080004B00833E4E70022F8E7000000205076000839
S315080004C05C7600085C7600085C7600084FF480418C
S315080004D0124B134A70B59A60D3F88820114D42F42E
S315080004E07002C3F88820104A05F5005491664FF04B
S315080004F0FF3222660D4A62660222C3F8D020BFF395
S315080005004F8FBFF36F8F4FF44036002002F090FBF9
S315080005100020E66002F05AFB2E6170BD00ED00E097
S31508000520000000080080004400900050F7FF3700E4
S3150800053038B504460D4601B118B93721034804F009
S31508000540F3FC23682B60256038BD00BF02650008F0
S3150800055038B504460D4601B118B94521044804F0DA
S31508000560E3FC236813B92B60256038BD1C46F8E701
S315080005700265000810B5044618B95621044804F067
S31508000580D3FC206818B1036823600023036010BDFC
S315080005900265000838B504460D4601B118B9892127
S315080005A0064804F0C1FC23682BB1AB4204D12B6882
S315080005B0236000232B6038BD1C46F4E7026500085B
S315080005C008B502F079FB014B186008BD1810002029
S315080005D0002307B52948019305F0B5FE4FF440738B
S315080005E0012204216846ADF8003000F0BFF8012268
S315080005F0234B0520C3F8442401A905F09FFE0028D3
S3150800060039D1204BD3F8F02042F00102C3F8F0208C
S31508000610D3F8FC2042F08072C3F8FC201A4AA3F5EE
S315080006205D431A60019B194A03F5D52303F2FC437F
S31508000630B3FBF2F3164A013B13610223C2F8F0300A
S315080006404FF48073C2F804334FF06043114AC3F87D
S31508000650B02F114AC3F8802ED3F8002E42F48072C8
S31508000660C3F8002EFF2283F82020D3F8002E22F4A8
S315080006708072C3F8002E03B05DF804FB746E0008A0
S3150800068000D0035000ED00E0FF030040F8590D00CC
S31508000690000004E055CEACC5090001004FF06043E8
S315080006A0D3F8802E30B5D20715D501240B4D8440DA
S315080006B0D5F8FC2042F08072C5F8FC20D3F8002E4D
S315080006C02243C3F8002E53F82020002AF0D003F85E
S315080006D02010002030BD1120FCE700BF00ED00E02F
S315080006E0F8B504460127124D0CB314F001000BD0DF
S315080006F0002024F0010405EBC0021668002EF3D092
S315080007005168C0B2B047EFE72246013020284FEAC9
S31508000710520201D0D307F8D507FA00F20F2824EAC7
S315080007200204E8D9421E05EBC2021038E5E7F8BD17
S315080007301C10002008B50C4805F005FE192002F02B
S315080007405FFA28B1192002F073FA192002F03EFA6E
S315080007501A2002F055FA28B11A2002F069FA1A206E
S3150800076002F034FA002008BD746E0008F8B50D468C
S315080007701646044628B91648892104F0D5FB2220D6
S31508000780F8BD0F2903D98C21114804F0CDFB237835
S31508000790DBB1013BDBB2022B06D80E4A32F8133026
S315080007A06278D340DB0703D48D21094804F0BCFBEB
S315080007B005F0BEFD074632462946204601F0CCFF25
S315080007C0384605F0B0FD0020DAE7FF23E8E700BF6A
S315080007D08B6500081666000810B5044628B90F4848
S315080007E0CF2104F0A1FB222010BD03789BB1013B69
S315080007F0DBB2022B06D80A4A32F813306278D340A5
S31508000800DB0703D4D221054804F08EFB204605F009
S3150800081051F90020E8E7FF23F0E700BF8B650008E1
S315080008201666000810B5044628B90F48DF2104F0FB
S315080008307BFB222010BD03789BB1013BDBB2022B68
S3150800084006D80A4A32F813306278D340DB0703D455
S31508000850E221054804F068FB204601F047FF002026
S31508000860E8E7FF23F0E700BF8B6500081666000877
S3150800087008B501F067FF054B00F0553020F0502011
S31508000880C3F82004BDE80840FFF72ABF00E003507C
S3150800089008B501F057FF054B00F0AA3020F0A0205C
S315080008A0C3F82004BDE80840FFF71ABF00E003506C
S315080008B02DE9F04F9A46564B85B01B7806460F46EB
S315080008C01546DDF83C909DF844B0DDF85080002BC5
S315080008D000F09780072A00F296800E9B002B00F006
S315080008E09280B9F1000F00F08E80129BB3F5006F6D
S315080008F000F38980012803D1109B002B00F0838028
S31508000900444B03EB05131B7B002B7ED0424C102275
S315080009100021684604F0BFFD04EB45141022A7BB6E
S315080009203946204604F0B7FD43F210036380BBF155
S31508000930000F03D1E37843F00303E370364A0E9BB6
S3150800094002EB451CCCE90193129B6901581E9DF8E0
S315080009504C30C0F30A0003F003039B0643EA001E6B
S3150800096053582E48012E00EA03004EEA0003CDF83C
S3150800097000A0535017D0B8F1000F2ED19CF80230C2
S3150800098068F304138CF8023027E00021204604F0AF
S3150800099082FD4FF444736380BBF1000FCED1E37838
S315080009A043F03003C9E713230CF1100ECCF80C30D2
S315080009B09CE80F008EE80F006FF00301DCF81C209E
S315080009C0109B61F39F02012FCCF81C20CCF8143041
S315080009D003D1CCF81890CCF8043000270D4A290129
S315080009E002EB051342F80180159A28465A606946B3
S315080009F022469F605E7301F05FFA384605B0BDE88F
S31508000A00F08F0748FAE70748F8E70748F6E700BF10
S31508000A10511500200C1200200C1100200F80FFF346
S31508000A20028000F0018000F0078000F038B5124B14
S31508000A3005461B78DBB1E0B105F07AFC0F4A0023C6
S31508000A401146147B54B92B6001251A0101EB0313D7
S31508000A501D738C5005F067FC204638BD0133082B02
S31508000A6002F11002EDD105F05EFC0548F5E70548F0
S31508000A70F3E70548F1E700BF511500200C120020E6
S31508000A80048000F0028000F0018000F038B505F01F
S31508000A904FFC002305460B4A147B6CB90133082B1F
S31508000AA002F11002F8D101F089F9074B28461C70AB
S31508000AB005F039FC204603E0284605F034FC0348D7
S31508000AC038BD00BF0C12002051150020058000F02B
S31508000AD00D4B10B51B78044693B1072812D805F0BC
S31508000AE027FC0A4B03EB04131A7B2AB100241C7358
S31508000AF005F019FC204610BD05F015FC0448FAE778
S31508000B000448F8E70448F6E7511500200C120020BF
S31508000B10068000F0028000F0018000F0154B13B546
S31508000B201868002301908DF8043005F001FC124B7B
S31508000B301C7824B105F0F7FB104802B010BD01225D
S31508000B401A7005F0F0FB0E4B01A81C731C7783F88E
S31508000B502C4083F83C4083F84C4083F85C4083F88B
S31508000B606C4083F87C4008238DF8073001F05CF967
S31508000B702046E2E71C66000851150020038000F0B5
S31508000B800C120020F8B50D4D2D7885B1072810DC1C
S31508000B900B4D060105EB0014277B67B1AB51002509
S31508000BA0069BA560636001F087F92846F8BD0548ED
S31508000BB0FCE70548FAE70548F8E700BF51150020A5
S31508000BC00C120020028000F0018000F0078000F07F
S31508000BD00A4A08B512785AB107280BD8084A02EB10
S31508000BE000131B7B43B1002101F0FEF8002008BD6D
S31508000BF00448FCE70448FAE70448F8E751150020DA
S31508000C000C120020028000F0018000F0078000F03E
S31508000C100A4A08B512785AB107280BD8084A02EBCF
S31508000C2000131B7B43B1012101F0DEF8002008BD4B
S31508000C300448FCE70448FAE70448F8E75115002099
S31508000C400C120020028000F0018000F0078000F0FE
S31508000C50184B2DE9F0411F6D5B6D1F4000D5FEE76F
S31508000C6001260025144CDFF85880374218D023682F
S31508000C70C8F85060A3B1A168284601316268A1602E
S31508000C809847637B012B0BD150B90C4B03EB4513EB
S31508000C901A7B60F341021A731A7F60F341021A77CE
S31508000CA00135082D4FEA460604F11004DDD1BDE8EA
S31508000CB0F08100BF000004500C1200200C11002027
S31508000CC00020045038B5104B0546D3F800310C46C1
S31508000CD003F00303022B0BD0032B0DD0012B0FD1EE
S31508000CE004F020FE032305B1286004B1236038BD53
S31508000CF004F076FE0923F6E704F01AFE0823F2E765
S31508000D0001230020EFE700BF0080005038B5104BE4
S31508000D100546D3F840310C4603F00303022B0BD0EB
S31508000D20032B0DD0012B0FD105F0EEFA0A2305B1DE
S31508000D30286004B1236038BD04F052FE0923F6E7A3
S31508000D4005F0E5FA0C23F2E701230020EFE700BFE0
S31508000D500080005038B5104B0546D3F860310C4674
S31508000D6003F00303022B0BD0032B0DD0012B0FD15D
S31508000D7005F0CAFA0A2305B1286004B1236038BD14
S31508000D8004F02EFE0923F6E705F0C1FA0C23F2E774
S31508000D9001230020EFE700BF0080005038B5104B54
S31508000DA00546D3F840320C4603F00303022B0BD05A
S31508000DB0032B0DD0012B0FD105F0A6FA0A2305B196
S31508000DC0286004B1236038BD04F00AFE0923F6E75B
S31508000DD005F09DFA0C23F2E701230020EFE700BF98
S31508000DE00080005038B5124B0546D3F880300C46C3
S31508000DF003F00303022B0BD0032B0DD0012B0FD1CD
S31508000E0004F05AFD0E2305B1286004B1236038BDED
S31508000E1004F092FD0723F6E704F048FD0623F2E7FF
S31508000E20044841F22E2104F07FF800231846EAE729
S31508000E30008000502066000838B51A4B0546D3F8DE
S31508000E4020010C4600F00700062821D8DFE800F04C
S31508000E5028040C1410181C0004F028FD052305B1FD
S31508000E60286004B1236038BD04F05CFD0323F6E76F
S31508000E7004F062FD0723F2E704F050FD0223EEE7D3
S31508000E8004F014FD0623EAE704F04CFD0423E6E724
S31508000E90054841F2AB2104F047F800231846DEE77F
S31508000EA00123DCE7008000502066000838B5194B9E
S31508000EB00546D3F828310C4603F00703013B052BFA
S31508000EC020D8DFE803F003131B0F0B1704F0EEFC22
S31508000ED0052305B1286004B1236038BD04F0E6FC9B
S31508000EE00623F6E704F028FD0723F2E704F01AFDC7
S31508000EF00323EEE704F016FD0423EAE704F00EFDEB
S31508000F000223E6E7044841F2A50104F00DF80023A0
S31508000F101846DEE70080005020660008002337B533
S31508000F200193194B0546D3F820320C4603F0070304
S31508000F30042B1FD8DFE803F025030F14190000213E
S31508000F4001A8FFF7B3FF12230DB1019A2A6004B175
S31508000F50236003B030BD04F0EFFC07230190F3E7EC
S31508000F6005F0D2F90A230190EEE704F039FD0923CA
S31508000F700190E9E741F26201044803F0D5FF002336
S31508000F80E2E70123E0E700BF008000502066000882
S31508000F90F7B50027144B0197D3F88041064604F0AD
S31508000FA00304022C0D4614D0032C0DD0012C14D1A9
S31508000FB0394601A8FFF740FF10240EB1019B3360A4
S31508000FC005B12C6003B0F0BD04F0B6FC072401900F
S31508000FD0F3E704F0A3FC0190EFE741F20E41034862
S31508000FE003F0A2FF3C46E8E70080005020660008B0
S31508000FF038B5164B0546D3F800020C4600F0070034
S31508001000042819D8DFE800F020030B0F130005F0B9
S315080010107BF90A2305B1286004B1236038BD04F0C2
S31508001020DFFC0923F6E705F072F90C23F2E704F072
S3150800103063FC0F23800AEDE7054841F2CC4103F033
S3150800104073FF00231846E5E70123E3E70080005015
S315080010502066000838B5164B0546D3F808020C4634
S3150800106000F00700042819D8DFE800F020030B0F6A
S31508001070130005F049F90A2305B1286004B1236075
S3150800108038BD04F0ADFC0923F6E705F040F90C235A
S31508001090F2E704F031FC0F23800AEDE7054841F238
S315080010A0045103F041FF00231846E5E70123E3E76F
S315080010B00080005020660008002337B50193184BBE
S315080010C00546D3F860320C4603F00703013B032BB1
S315080010D01FD8DFE803F0020E1914002101A8FFF754
S315080010E0ABFE10230DB1019A2A6004B1236003B048
S315080010F030BD002101A8FFF709FE1123F2E704F02D
S315080011001BFC07230190EDE704F008FC022301907D
S31508001110E8E741F20911034803F006FF0023E1E777
S315080011200080005020660008002337B50193184B4D
S315080011300546D3F894320C4603F00703013B032B0C
S315080011401FD8DFE803F0020E1914002101A8FFF7E3
S3150800115073FE10230DB1019A2A6004B1236003B00F
S3150800116030BD002101A8FFF7D1FD1123F2E704F0F5
S31508001170E3FB07230190EDE704F0D0FB022301907F
S31508001180E8E741F23C11034803F0CEFE0023E1E70D
S31508001190008000502066000873B500240F4B0194A8
S315080011A0D3F87032064603F00303012B0D4607D029
S315080011B0022B11D041F26711094803F0B5FE04E08D
S315080011C0214601A8FFF7A2FD11240EB1019B336049
S315080011D005B12C6002B070BD1524F6E700800050FA
S315080011E020660008B0F5207F10B52ED009D8B0F5D6
S315080011F0007F24D003D868B1B0F5C07F0AD0002498
S315080012001BE0B0F5607FFAD1124BD3F88040C4F3E7
S31508001210011412E00F4B1C6F230B13F00E0FC4F3CF
S3150800122003340AD0072C08D00F2C06D0032C04D080
S3150800123040F28B21084803F077FE601C10BD054B71
S31508001240D3F89040C4F30464F7E7024B1C6FC4F369
S315080012508024F2E7008000502066000838B543096C
S3150800126004460D460ED140F23B310D4803F05CFEB4
S31508001270002304F01F0485B103F580530122A24020
S315080012801A6038BD012B04D0022B04D040F2493134
S31508001290EBE7044BEDE7044BEBE703F50053EDE70B
S315080012A0206600086480005068800050002130B530
S315080012B0B0F5807F85B00446CDE9001100F0D380F3
S315080012C03DD85E2833D85E2833D8DFE800F04832A8
S315080012D032323232323232323232323232323232E0
S315080012E0323232323232323232323232323248AD3F
S315080012F048ADBDBDBDBDBDADC7516EDD51ADADADD2
S315080013003232323232323232ADADAD81E7AD3232BF
S315080013103232323232323232323232BD484848E222
S315080013205151EC9066C232323232329848008028E7
S315080013306AD040F2AA41604803F0F6FD67E0B0F5CE
S31508001340D06F00F0A18035D8B0F5607F77D01AD875
S31508001350B0F5007F5ED005D8B0F5C07FE9D104F0BE
S31508001360CBFA53E0B0F5207F5ED0B0F5407FE0D1F0
S3150800137004F0C2FA04464FF42070FFF733FFB4FBBB
S31508001380F0F4640859E0B0F5B06F67D00AD8B0F544
S31508001390806F59D0B0F5A06FCBD100216846FFF712
S315080013A0BDFD34E0B0F5C06FC3D100216846FFF734
S315080013B0ADFC2CE0B0F5106F6BD00ED8B0F5086F09
S315080013C076D0B6D8B0F5E06F68D0B0F5F06FB0D18A
S315080013D000216846FFF7BEFC19E0B0F5406F38D02B
S315080013E00AD8B0F5206F5ED0B0F5286FA1D10021DC
S315080013F06846FFF7D1FE0AE0B0F5486F99D100219B
S315080014006846FFF791FE02E004F056FA009000984D
S3150800141005B030BD04F050FA05462046FFF7E2FE57
S31508001420B5FBF0F50095F2E704F066FA04464FF4CA
S315080014302070FFF7D7FEB4FBF0F40094E7E701A8A5
S31508001440FFF7D0FC019DE8E700216846FFF7F4FCAA
S31508001450DDE700216846FFF729FDD8E70021684641
S31508001460FFF796FDD3E74FF0E02302911B695B0770
S3150800147005D504F041FA0290029B0093C7E703A939
S3150800148002A8FFF743FCF7E700216846FFF7B0FD1F
S31508001490BDE700216846FFF7DDFDB8E7002168468D
S315080014A0FFF77CFCB3E700216846FFF705FEAEE7C9
S315080014B06846FFF707FCAAE7206600081FB503463B
S315080014C00020B3F5807F019000F0C58063D85D2BBE
S315080014D054D84C2B06D82D2B46D8232B2AD840F285
S315080014E08F51A7E04D3B102BF9D801A252F823F0F3
S315080014F04D160008DF140008DF140008DF14000882
S31508001500F7150008DF140008DF140008A7160008FE
S3150800151015160008BB1500089D160008DF140008FC
S31508001520DF140008DF140008DF140008DF140008C1
S31508001530B1160008243B092BD1D801A252F823F092
S315080015404D1600084D1600084D1600084D160008E1
S315080015504D160008DF1400083D160008DF140008C1
S31508001560D7150008831600083D2B00F085803E2B12
S31508001570B5D1002001A9FFF711FC63E0802BAED19D
S315080015804E4B1B6F03F00703013B032B50D8DFE8D4
S3150800159003F04D46494BB3F5F06F6DD020D8B3F53F
S315080015A0B06F4BD00ED8B3F5607F73D097D3B3F531
S315080015B0806F4BD0B3F5A06F91D1002001A9FFF73A
S315080015C0ADFC3FE0B3F5D06F5BD0B3F5E06FD0D09C
S315080015D0B3F5C06F83D1002001A9FFF797FB31E06F
S315080015E0B3F5206F5FD00BD8B3F5086F4ED0B3F5BF
S315080015F0106F7FF474AF002001A9FFF72BFD21E0DF
S31508001600B3F5406F4AD0B3F5486F51D0B3F5286F9C
S315080016107FF465AF002001A9FFF7BEFD12E00523A0
S3150800162001930FE00323FBE70823F9E70223F7E713
S3150800163040F2DC41224803F077FC03E0002001A9D0
S31508001640FFF7A6FC019805B05DF804FB002001A988
S31508001650FFF7F2FBF6E74FF0E02302901B695B0702
S3150800166005D504F049F90D230393039BD8E703A98D
S3150800167002A8FFF74BFBF8E7002001A9FFF76AFB72
S31508001680E0E7002001A9FFF7B3FCDBE701A9FFF7B4
S3150800169019FBD7E701A9FFF7A5FBD3E7002001A9A6
S315080016A0FFF704FCCEE7002001A9FFF705FDC9E70F
S315080016B0002001A9FFF738FDC4E700BF00800050ED
S315080016C02066000810B503F0BEFC042300F580511F
S315080016D000F500520B6113610B6113610B61136115
S315080016E00B611361202341F2020103610023C360E9
S315080016F0836041614FF4A021836183654162054996
S31508001700C36103628362C36243630365D16403638F
S3150800171010BD00BFFF3F0D0338B5174B044698426E
S315080017200D4607D0154B984204D040F2691114486B
S3150800173003F0FAFB25B92046BDE8384003F083BC20
S31508001740012204F580535A6040F6FF71204605F0E1
S315080017500F0203F074FCA263782103F070FC05F015
S3150800176001036A0748BF43F00203A26C02F00302B2
S315080017709A42FAD138BD00BF0000015B00000A504A
S31508001780A4660008F8B505460C46164622B940F286
S3150800179027216B4803F0C8FB6A4B9D4202D19CB9CE
S315080017A056240DE0684B9D4247D040F22A216448F2
S315080017B003F0BAFB44B940F27931614803F0B4FB4F
S315080017C02046FFF773FD0446AB68D80745D5B442F3
S315080017D004D24FF40D715A4803F0A6FBB4FBF6F495
S315080017E06F68013CFF2C07F0010704D94FF40F710D
S315080017F0534803F099FB24064FB32821284603F0E3
S315080018001EFCAB6C99071CD1AB6CDA071BD4AE6C0B
S3150800181016F0020619D140F24921494803F084FB23
S31508001820284603F010FC2B69314623F07F432343F7
S315080018302B61BDE8F840FFF76FBF002CC4D15724D1
S31508001840BEE70526ECE70926EAE70626E8E72B6958
S3150800185023F07F4323432B61F8BD6B68012B04D02B
S315080018604FF41771364803F05FFBAB6DDB07AB68C7
S3150800187048BF760003F0E003402B42D009D893B165
S31508001880202B1AD040F29E21BDE8F8402C4803F0E0
S315080018904BBB602B42D0802BF4D106EB4603A34208
S315080018A047D801230DE0B6EB141F04D94FF4217174
S315080018B0234803F039FB102303E0B6EBD40F1AD8FC
S315080018C0082373436401B4FBF3F4204F203CB7EBC1
S315080018D0C40F4FEAC40604D240F2A921184803F0FF
S315080018E023FB28463E40012103F0A9FB2E63BDE8F1
S315080018F0F84003F0A4BB40F28921114803F014FB19
S31508001900DEE70623B4FBF3F3B34201D30623D8E795
S3150800191040F28E210A4803F007FBF7E7B6EB940F6F
S3150800192001D80423CDE740F29321054803F0FCFAD9
S31508001930F7E74FF42671024803F0F6FAB1E700BF5D
S31508001940A46600080000015B00000A50F8FF7F004B
S315080019502DE9F0419846436804460E4617461BB1E2
S3150800196040F6FF7103F06BFB2046FFF7ABFEF189EB
S31508001970737B62690B43318A22F44C5222F00F02C0
S315080019800B4313436361A26896F818C0337B22F0B1
S31508001990804222F0E2024CEA0303134372691343BE
S315080019A0B268A3601AB9A36843F00043A360F0695C
S315080019B004F58053002878D0857A017A6D04D4F826
S315080019C008E045EA81556E490EEA01010D43818812
S315080019D001F4C0410D43417845EA8105417B45EA5A
S315080019E0C105817B45EA0115817845EA8125A5600F
S315080019F0D4F80CE0D0E904152943624D0EEA050532
S31508001A002943857941EA8521C57941EA4521E1607D
S31508001A1001785D4D012914D1E16841F00401E160C6
S31508001A20AC4200F0928059498C420CBF01214FF01C
S31508001A30FF31490101F1A04142F2944501F57031A7
S31508001A4014E003297BD1E16841F00401E160AC426E
S31508001A5079D04E498C420CBF01214FF0FF3141F23B
S31508001A609445490101F1A04101F570314FF0020E8C
S31508001A7041F805E0417A996219B1E16841F40061DB
S31508001A80E160C17A59B1E16841F40041E1603E493B
S31508001A908C425CD1017B3E4D01F00F016967616A9A
S31508001AA0C07B21F00301014361622FB197F8201032
S31508001AB0002956D001211962B8F1000F2DD0BCF1CA
S31508001AC0000F02D04FF4004199652F49B8F822500B
S31508001AD08C4298F8211051D02C48844213D1012009
S31508001AE0112934BF4FF0010C4FF0020C294FB5F500
S31508001AF0006F07F800C094BF4FF0010C4FF0020CBE
S31508001B00254F07F800C0A06D294320F4F95020F0AE
S31508001B101E000143A16501219965012159601AB189
S31508001B2020467168FFF72EFE20463178FFF7F4FD50
S31508001B30A36CDB4313F4405FFAD1BDE8F0810239A8
S31508001B40012984D96CE7002189E7002171E70F494B
S31508001B508C4201BF017B0E4D01F00F01C5F88010C4
S31508001B609DE7E06997F8221097F8215020F00900C0
S31508001B702943014341F00101D9619DE70020AFE700
S31508001B80E39BBDFFFFF9F0870000015B00000A50E8
S31508001B90009003505415002052150020134B70B5C1
S31508001BA0984205460C4606D0114B984203D0702140
S31508001BB0104803F0B9F91CB972210E4803F0B4F9BC
S31508001BC0237B802B03D176210A4803F0ADF9637B8A
S31508001BD0032B03D97921074803F0A6F900232146E8
S31508001BE02846BDE870401A46FFF7B2BE0000015B02
S31508001BF000000A50A46600082B4B70B598420546AB
S31508001C000C4643D119B98C21284803F08DF9562082
S31508001C10FFF754FC0C2807D0A0F10903012B03D9C0
S31508001C20A0F11103012B3AD8637B032B03D9AD210D
S31508001C301E4803F079F9237B802B03D0AF211B487C
S31508001C4003F072F96369B3F1804F03D0B1211748E5
S31508001C5003F06AF9238A23F400539BB2B3F5805F35
S31508001C6003D0B321114803F05FF9A368013BB3F52C
S31508001C70165F03D3B5210D4803F056F90023214614
S31508001C802846BDE870401A46FFF762BE8A21074813
S31508001C9003F04AF91CB98C21044803F045F99E2142
S31508001CA0024803F041F9BFE70000015BA46600089B
S31508001CB0032838B504460D4605D8094B33F81030C5
S31508001CC0CB40DB0704D440F28541064803F02CF9E3
S31508001CD0302301225C43044BAA401A5138BD00BF89
S31508001CE0366800082B67000840D00350032838B52B
S31508001CF004460D4605D8094B33F81030CB40DB07B0
S31508001D0004D440F25641064803F00EF93023012266
S31508001D105C43044BAA401A5138BD00BF3668000818
S31508001D202B67000840E0035003282DE9F0410446DC
S31508001D300D461746984605D81D4B33F81030CB404C
S31508001D40DB0704D44FF4B0711A4803F0EDF837B145
S31508001D5029462046B8F1000F20D0FFF7A9FF0F212A
S31508001D60072D04EB440688BFA5F108034FEA0616BB
S31508001D70114895BFAB009B0004360C3607FA03F2F0
S31508001D809940304403F07EF97FB929462046B8F1D8
S31508001D90000F06D0BDE8F041FFF78ABFFFF7A6FFA0
S31508001DA0DDE7BDE8F041FFF7A1BFBDE8F08100BF60
S31508001DB036680008B067000830C0035010B5152013
S31508001DC000F0E6FE0024FF22064B21465C65202033
S31508001DD09A625C60FFF742FA2146BDE8104021206E
S31508001DE0FFF73CBA00000450072838B504460D46EC
S31508001DF003DD7721084803F097F81F2C03D99121B2
S31508001E00064803F091F8064A064B002D08BF13460C
S31508001E100122A2401A6038BD3E680008C36800085F
S31508001E20401004504020045010B5044618B99121BA
S31508001E301F4803F079F823781B0613F0604F03D088
S31508001E4092211B4803F070F8E3780F2B03D99521EC
S31508001E50174803F069F801212020FFF7FFF901214F
S31508001E602120FFF7FBF90122124B15205A60227830
S31508001E7012069A606178A27842EA01429A61FF22C4
S31508001E809A6200229A631A644FF000425A654FF02C
S31508001E90FF3203F500531A6500F0CAFE1520E178F3
S31508001EA000F0D4FEBDE81040152000F08FBE00BF3C
S31508001EB03E68000800000450F8B50126C3B207289A
S31508001EC005460C46174606FA03F603DDDE213448B6
S31508001ED003F02AF81CB9DF21314803F025F82368F6
S31508001EE023F47C1323F00F031BB1E2212C4803F0E3
S31508001EF01BF8A37A1B0413F47C0F03D0E7212848A8
S31508001F0003F012F8E37A1B0513F07E6F03D0E9217C
S31508001F10234803F009F8237B5B0513F0FE5F03D023
S31508001F20EB211F4803F000F81E4B27F003071E6538
S31508001F30AB00226803F1A04303F588235A603022D8
S31508001F4002FB05F0637B00F1A04000F580200366E4
S31508001F50E37AA27A1B0543EA0243227B43EA425309
S31508001F60C365076704F0E4F90F4B227A5E6502B190
S31508001F701E64627A02B19E632279A37943EA024318
S31508001F80084A93616179E37943EA014306498B611B
S31508001F90064B56639E64BDE8F84004F0C4B900BF1A
S31508001FA03E68000800200450001004500000045049
S31508001FB010B50124C3B2072804FA03F404DD40F27D
S31508001FC07B11074802F0B0FF04F0B2F9054B5A6DD1
S31508001FD022EA04025A659C62BDE8104004F0A3B9DF
S31508001FE03E6800080000045010B50124C3B2072853
S31508001FF004FA03F404DD40F299110A4802F094FF4A
S3150800200004F096F9084BDA6A224208D15B6B9C43C6
S315080020100CBF0124002404F086F9204610BD0024D4
S31508002020F9E700BF3E6800080000045070B50125B6
S31508002030C3B20728044605FA03F504DD4FF4E07138
S31508002040094802F071FF04F073F93022074B5E6B02
S3150800205002FB04335C6E04F066F935420ABFC4F32A
S315080020600A100020013070BD3E68000800000450C8
S31508002070242808B51AD820280BD812281ED011D81B
S3150800208028B101281CD0B6210F4802F04DFF0020C8
S3150800209007E02238022815D8DFE800F0020C0E0007
S315080020A0022008BD1428EED10820FAE73228EAD122
S315080020B00620F6E70420F4E70520F2E70720F0E714
S315080020C00320EEE70120ECE747690008142810B55D
S315080020D00C4631D005D801281ED0122825D0204616
S315080020E010BD242810D82028F9D9042C0FD801A30C
S315080020F053F824F0DF200008DF200008DF2000085E
S31508002100DF200008DF2000083228EED0E7E7F621B6
S315080021100F4802F009FFE2E70129E0D00229DED0E4
S315080021200029DCD040F20711F2E702290BD0032977
S315080021300BD04FF48B71EBE7022904D0032904D0A6
S3150800214040F22511E4E70024C9E70124C7E700BFE8
S315080021504769000870B50546C2F3062602F007046B
S3150800216079B90F2804D94FF4FC710F4802F0DCFE48
S3150800217044EA062444F4402406350C4B43F825402B
S3150800218070BD032804D940F2FD11074802F0CCFEC1
S3150800219021463046FFF79AFF04463046FFF768FFA8
S315080021A0163544EA0024E8E747690008008003502A
S315080021B0B2F5805F70B505460E4614460DD34FF44A
S315080021C00B71084802F0B0FE24F0030202F1A042A7
S315080021D002F5603226B9156001E0002AF4D170BD17
S315080021E02D02F8E74769000838B50A4B04469842B5
S315080021F00D4607D0084B984204D04FF4AA61074809
S3150800220002F092FE6368DB0702D5636D2B42F9D1B3
S3150800221038BD00BF0000015B00000A50CB6900080A
S315080022200B4B10B59842044607D00A4B984204D087
S3150800223040F26151084802F077FE204640F6FF71E9
S31508002240FFF7D2FF012304F58054636010BD00BF79
S315080022500000015B00000A50CB690008094B10B565
S315080022609842044607D0084B984204D040F273516E
S31508002270064802F059FE6368012B04BF04F50054B2
S31508002280636010BD0000015B00000A50CB690008BE
S31508002290084B10B59842044607D0074B984204D01D
S315080022A040F28F51054802F03FFE63689B07FCD455
S315080022B010BD00BF0000015B00000A50CB69000892
S315080022C00B4B10B59842044607D00A4B984204D0E7
S315080022D040F2A251084802F027FE204640F6FF7158
S315080022E0FFF782FF012304F58054A36310BD00BFE6
S315080022F00000015B00000A50CB6900080B4B10B5C3
S315080023009842044607D00A4B984204D040F2B3518B
S31508002310084802F009FE204640F6FF71FFF764FF01
S31508002320022304F58054A36310BD00BF0000015BBF
S3150800233000000A50CB6900080B4B10B598420446BA
S3150800234007D00A4B984204D040F2C451084802F01C
S31508002350EBFD204640F6FF71FFF746FF042304F520
S315080023608054A36310BD00BF0000015B00000A5043
S31508002370CB6900080B4B10B59842044607D00A4BA8
S31508002380984204D040F2D551084802F0CDFD2046C7
S3150800239040F6FF71FFF728FF082304F58054A3636E
S315080023A010BD00BF0000015B00000A50CB690008A1
S315080023B00D4B10B59842044607D00C4B984204D0F2
S315080023C04FF4C5610A4802F0AFFDA36CDA0704D5DD
S315080023D040F22B61064802F0A7FDA36C1B0600D449
S315080023E010BDE36BF9E700BF0000015B00000A506F
S315080023F0CB6900080E4B10B59842044607D00D4B22
S31508002400984204D040F244610B4802F08DFDA36C5B
S315080024109A0704D540F24761074802F085FD4FF454
S31508002420807204F580539A63A36C9B01FCD410BD9B
S315080024300000015B00000A50CB690008234B10B569
S315080024409842044607D0224B984204D04FF4AC7108
S31508002450204802F069FD2046FFF78CFF2046FFF76B
S315080024604DFF50212046FFF7BFFE2046FFF7F6FE38
S315080024702046FFF70DFF2046FFF79AFF2046FFF795
S31508002480B9FF042304F5805104F500520B6113616A
S315080024900B6113610B6113610B611361202341F218
S315080024A0020123610023E360A36061614FF4A02168
S315080024B061620949E3612362A361A365A362E362DA
S315080024C02365D16423636363236310BD0000015B46
S315080024D000000A505B6A0008FF3F0D03F8B5624B1F
S315080024E0044698420D4607D0604B984204D04FF4F4
S315080024F083715F4802F018FD25B94FF484715C4872
S3150800250002F012FD2046FFF799FF23692A7823F087
S31508002510870313436A7A43EA420343F0800323613D
S31508002520A368AA7A23F0030343EA420343F00103AC
S31508002530A36063692A7A23F00F031343636123694F
S315080025406A6823F07F4343EA02632361EB68002B42
S315080025505AD02269187922F0F80242EAC01218788D
S31508002560997942EA4012D87842EA0012D87A42EAC1
S31508002570C00242EA81122261E2689E7C22F0F042A1
S3150800258022F4702242EAC662DE7C587942EA0642A2
S315080025909E7842EA862242EAC032E260A2689E7AC1
S315080025A022F4C04242EA4632A2605A7804F58056BE
S315080025B09202B260676ADA7B2E4E02F003023E4050
S315080025C032431E7B360106F0700632435E7B3602C6
S315080025D006F4E06632439E7B360306F4E046324351
S315080025E05E7A360406F47026324362621A8AA2615B
S315080025F048B31D4A944208D17422D879002100F0C4
S3150800260013F9EB689A791ABBF8BD184A94420AD1AD
S315080026108022D879002100F007F9EB689A79002A18
S31508002620F2D07C2215E040F27741114802F07CFC9A
S31508002630EB689B79002BE7D0BDE8F84040F29F4154
S315080026400B4802F071BC0029DED0074A944206D135
S315080026507022187A0021BDE8F84000F0E5B8034A70
S315080026609442E9D1DDE700BF0000015B00000A5093
S315080026705B6A00088C88F0FF38B50B4B0446984215
S315080026800D4607D0094B984204D04FF4027108480A
S3150800269002F04AFCA36C5A06FCD56564A36C1B06BB
S315080026A0FCD5E06B80B238BD0000015B00000A5023
S315080026B05B6A000838B504460D4681B940F2FD212B
S315080026C0094802F031FCB4FBF5F4013CFF2C04D9AF
S315080026D04FF44171044802F027FC204638BD814278
S315080026E0F1D940F2FE21EBE75B6A000810B5044613
S315080026F020B94FF40D71104802F016FC2378C3B1C7
S31508002700013BDBB2022B06D80C4A32F8133062784A
S31508002710D340DB0704D440F23721074802F004FC13
S315080027200122637821789A4030235943044B5A5042
S3150800273010BDFF23EBE700BFEB6A0008086C000832
S3150800274040E00350034BD3F82424D3F82004104068
S31508002750704700BF00C003502DE9F04103780446D6
S315080027600D46164613B3013BDBB2022B06D82A4A9E
S3150800277032F813306278D340DB0703D45D2127484B
S3150800278002F0D2FB264BD3F810331BB16021234845
S3150800279002F0CAFB0F2D0BD8DFE805F036313131D0
S315080027A0313131313131313131313131FF23E1E7E5
S315080027B0B4211A4802F0B8FB4FF00008204606B3C9
S315080027C003F078F90F2167782378072F03EB430383
S315080027D088BF083F4FEA0313124895BFBF00BF00E2
S315080027E004330C3308FA07F2B940184402F059FCCE
S315080027F085B9204656B1BDE8F04103F05BB9A84655
S31508002800DCE7FFF773FFDDE7A846DBE7BDE8F04145
S31508002810FFF76CBFBDE8F081086C0008796B00080B
S3150800282000C0035030C00350B2F5805F70B505464E
S315080028300E46144612D39B210E4802F075FB24F06F
S31508002840030404F1A04404F5603456B90F2D03D9E6
S31508002850A321084802F068FB256001E0002AEED1B2
S3150800286070BD032D03D9A721024802F05DFB2D0296
S31508002870F2E700BF0E6C0008054B9A689107FCD476
S315080028805A689207F9D4DA69002AF6D1704700BF68
S3150800289000800A5010B5064C6368DB0703D4A521EF
S315080028A0044802F041FB03F031F90223236110BD0D
S315080028B000800A509B6C000808B5FFF7DDFF01226F
S315080028C0024B03F580514A601A6108BD00800A5020
S315080028D0044B10B55C68012C03D1FFF7DBFF024BF4
S315080028E05C6010BD00800A5000A00A5038B5074D3C
S315080028F0FFF7C2FF6B680446012B03D1FFF7E8FF19
S31508002900FFF7BAFF2378EB6038BD00BF00800A5096
S3150800291038B505460C4603F003F9BDB96268237855
S3150800292012B1127843EAC203627843EA4203A26804
S3150800293012B1127843EA8213E27843EA82032269E3
S3150800294012B1127843EA4223014A936438BD00BFA4
S3150800295000800A5070B501F06DF90446E8B901F037
S31508002960D9F903F099FB4FF4167343430C4A03F560
S31508002970742303F23F23B3FBF2F30A490A480B60B8
S315080029800A230268094D0E68013B45F8046B0E6878
S3150800299013F0FF033244F6D10260204670BD00BF33
S315080029A040420F00C012002090120020941200200E
S315080029B0012208B5034B1A7003F02DFD024B18606F
S315080029C008BD00BF561500208C12002010B503F074
S315080029D063FB044603F09BFC844207D903F027FDFA
S315080029E020B10122024B1860024B1A7010BD00BFBD
S315080029F08C12002056150020F8B5224D2B7813B3FB
S31508002A0003F009FD204B214E1B68C01A306033685D
S31508002A10D3B13368336003F03FFB4FF41673584362
S31508002A201B4C00F5742000F23F20B0FBF4F4336829
S31508002A30A34203D9C721174802F076FA3368A3429E
S31508002A4004D900232B70F8BD0123E3E71248134C81
S31508002A500378316854F82320114F511A3A68521AEC
S31508002A6031683A6044F823100A210932B2FBF1F2C0
S31508002A700C4C0133DBB22260B3FBF1F201FB1233DB
S31508002A800370DEE7561500208C120020BC120020C9
S31508002A9040420F00C46E000857150020941200200B
S31508002AA090120020C0120020014B1868704700BF22
S31508002AB0C0120020F8B503212C2000F0C7F8042620
S31508002AC04FF480120D4C0E4B0E4F04F500555A6606
S31508002AD02C206F676E672F672E6700F0A9F82C20E9
S31508002AE000F074F84FF0007204F580535F675E6774
S31508002AF0AA624FF480529A62F8BD00BF0040005A9D
S31508002B0000900050010000A0064B074A996D11F08D
S31508002B10050F01D0117811B10028F7D170470120AF
S31508002B20704700BF0040005A58150020164B10B5D4
S31508002B301C6F14F0040111D0144A11670821916220
S31508002B409B6DDA0701D4FFF741FF01F067F801F042
S31508002B5047F8012003F0C8FA03F06BFCE30706D533
S31508002B6001220A4B1A67FFF747FF01F039F814F0FC
S31508002B7000521CBF054B1A67002CBEBF4FF000421F
S31508002B80024B1A6710BD00BF0040005A0060005A89
S31508002B904C2810B504460DD801220A49630904F0E9
S31508002BA01F04A240203341F82320BFF34F8FBFF301
S31508002BB06F8F10BD4FF49571034802F0B5F9002CDC
S31508002BC0F7DBE9E700E100E0606F00084C2810B584
S31508002BD0044608D801236109074A04F01F04A340E4
S31508002BE042F8213010BD40F23511044802F09CF934
S31508002BF0002CF7DBEEE700BF00E100E0606F00089D
S31508002C004B2810B5044604D94FF4A071064802F0C3
S31508002C108BF9064B621153F8220004F01F04E040BA
S31508002C20C04300F0010010BD606F000800E100E03D
S31508002C30002808DB01224309034900F01F008240EF
S31508002C40603341F82320704700E100E038B500F111
S31508002C5010035C2B04460D4604D940F2E5110E48D4
S31508002C6002F062F90F2D04D94FF4F3710A4802F005
S31508002C705BF960B20028ACBF00F16040074B4FEA31
S31508002C800515EDB2ABBF00F5614000F00F0080F806
S31508002C9000531D5438BD00BF606F000814ED00E0F6
S31508002CA010B5044603F044FB024B1C6003F03BFBE3
S31508002CB0002010BDC412002010B503F039FB034BE9
S31508002CC01C6803F030FB204610BD00BFC41200206C
S31508002CD038B50446D0F8A4301D68AB6C5906FCD547
S31508002CE0002394F8AD101A4694F8AC00FFF71CF8C8
S31508002CF0002394F8AF101A4694F8AE00FFF714F8BC
S31508002D0094F8B430DA0707D5002394F8B1101A46B8
S31508002D1094F8B000FFF708F894F8B4309B0707D585
S31508002D20002394F8B3101A4694F8B200FEF7FCFF95
S31508002D30012205F500531A65042200211A65284662
S31508002D40094DFEF7E9FCD4F8A80003F0FFFA284677
S31508002D5004F1B801FDF71EFC2B6813B9034800F00F
S31508002D602FFF002038BD00BFC8120020CC1200205B
S31508002D70012910B502D9022913D010BD124B1C68BF
S31508002D80B83C14F1B80FF8D0D4F8A80003F0DBFA71
S31508002D90D4F8A43005211868FEF7BEFCD4F8B8406C
S31508002DA0EEE7094B1C68B83C14F1B80FE5D094F867
S31508002DB0973033B994F895301BB9D4F8A80003F0C6
S31508002DC0C5FAD4F8B840EEE7C81200202DE9F0435A
S31508002DD01D4613688FB01F6891F8313081468846C2
S31508002DE0144606AE1BB3DFF850C2BCE80F000FC688
S31508002DF09CE80F0086E80F0018220021684602F0BA
S31508002E004AFBA3680893237B012B13D0022B14D00B
S31508002E101BB1D9217D4802F087F80023ADF826308A
S31508002E20637B032B1FD8DFE803F00B25221BDFF893
S31508002E300CC2DAE74FF40073F0E74FF44073EDE79E
S31508002E400023ADF8283001238DF80630A37BCDF892
S31508002E5034D0042B11D8DFE803F014151515140027
S31508002E604FF44053EDE7EB21684802F05DF84FF464
S31508002E708053E6E74FF40053E3E7FE21634802F088
S31508002E8053F800238DF80030614AD8F838302946BF
S31508002E901A60604A48465A605F4A9A605F4ADA6032
S31508002EA0424600F0D9FC0646002840F0A780236970
S31508002EB05B48C5F8A830237E85F8AF30E37D85F8F2
S31508002EC0AE30A37D85F8AD30637D85F8AC30A37E42
S31508002ED085F8B130637E85F8B030237F85F8B33046
S31508002EE0E37E85F8B2302368C5F8A43003F02BFAE0
S31508002EF001230422A17D607DFEF716FF0123217EB2
S31508002F000222E07DFEF710FF85F8B460206903F021
S31508002F101AFA98F83130384606A9002B72D0FEF70F
S31508002F203DFE95F8B43043F0040385F8B430142117
S31508002F30227D3C4B03EB4210C0F8941494F816C05B
S31508002F40617D253241EA0C41C0F8AC14207EE17D52
S31508002F5003EB421341EA00415960A37B03F0FD03EA
S31508002F60012B0BD195F8B430022243F0010385F802
S31508002F70B430A17E0023607EFEF7D6FEA37B023B1B
S31508002F80012B0BD895F8B430042243F0020385F8D8
S31508002F90B430217F0023E07EFEF7C6FE95F8B430F4
S31508002FA0DB0717D5A17E627E237D42EA014241F204
S31508002FB09C415B0103F1A04303F570335A5041F27B
S31508002FC0944202219950217FE27E03F5A55342EAF5
S31508002FD001421A60144B1B681BB91449144800F0C7
S31508002FE0DDFD114805F1B801FDF7A2FA114A07F50A
S31508002FF0005305213846DA64FEF78EFB30460FB0DB
S31508003000BDE8F083FEF7F8FD91E700BF0E700008F3
S3150800301081510008B351000897510008D12C0008C7
S31508003020746E000800C00350C81200209C150020CA
S31508003030CC120020FF3F0D03AC700008CC700008CE
S315080030400068D0F8A4301B68DA6CD20708D50121CD
S3150800305003F50052D1649B6C9B0606D500F062BD51
S315080030604FF41171014801F05FBF70470E700008F8
S3150800307010B50020144602F02BF8022804D018B127
S31508003080C321024801F050FF204610BDEC7000082D
S31508003090034B0222186800238068194601F048BAD3
S315080030A0E81500203021037D02464B4303F1A04377
S315080030B003F58023D86E07491B6F884208D113F0A1
S315080030C0020006D0106A136D1B1A58425841704701
S315080030D00020704759150020302337B5007D0DF1C3
S315080030E00701434303F1A04303F58023DD6E1C6FFC
S315080030F002F09CFC20B140F2F731084801F014FFB9
S315080031009DF8070040B9064B9D4203D184F002049E
S31508003110C4F3400003B030BD0120FBE78F710008FF
S315080031205915002070B5044608B9012070BD057D03
S315080031302846FDF74DFD20B140F29511134801F0E0
S31508003140F3FE30236B4303F1A04303F5802328469F
S31508003150DE6EFDF75DFD20B140F29F110B4801F0D0
S31508003160E3FE0B4B9E421CBF042384F8A13094F85F
S31508003170953094F8A1002BB1022803D1012384F8D5
S31508003180A130D3E70428D0D1F8E700BF8F71000833
S315080031905915002038B50446FFF79EFF98B1256DEE
S315080031A0D4E9122313449D4201D8AA4204D940F215
S315080031B04641094801F0B8FED4E9120303449D428A
S315080031C018BF284638BD3022237D534303F1A04358
S315080031D003F58023DD6EE3E78F7100082DE9F743D9
S315080031E0D0E9043404F17C07D0F80C90013B06467C
S315080031F01022002138469DB2D4F8748002F04BF9AB
S31508003200104BC5F30A0543EA0513C4E91F39012320
S3150800321094F8780084F88C30C4F884803A460A4BCF
S31508003220009604F16401FDF7ADFC38B140F28B312C
S31508003230064803B0BDE8F04301F076BE03B0BDE82A
S31508003240F08300BF00001030C53300088F710008F6
S315080032502DE9F04300F13806044685B01022002116
S31508003260304602F018F94FF44473534D207DC4E9F3
S315080032700F556387FDF7ACFC20B140F2C4514F48A7
S3150800328001F052FE10220021304602F004F94FF4F4
S31508003290447363873023207DC4E90F55434303F104
S315080032A0A04303F58023DB6EAB420BD1FDF7B0FCE0
S315080032B0002876D040F2CD51404805B0BDE8F0432D
S315080032C001F032BE0DF10B0102F0B0FB20B140F265
S315080032D0D3513A4801F028FE9DF80B30002B63D1F4
S315080032E02046FFF757FF03A90746207D02F0C0FBDB
S315080032F020B140F2DB51314801F016FE039B002B4A
S3150800330004DC40F2DD512D4801F00EFE039B04F16A
S315080033101808013B1022002140469DB2D4F81090AF
S3150800332002F0B9F83022237DC5F30A0553432D016F
S3150800333045F04075C4E9065903F1A043276203F531
S3150800334080231A6F94F82410520862F3410184F816
S315080033502410196F94F8242028F0030861F300025A
S3150800336084F824201B6F626A9B0863F39F0248F067
S31508003370020362626364009432462146104B207D44
S31508003380FDF700FC20B140F2FE510C4801F0CCFDDF
S31508003390207DFDF73DFC20B140F20261074801F0AF
S315080033A0C3FD05B0BDE8F08394F844306FF34103DC
S315080033B084F84430DFE700BF591500208F710008F4
S315080033C00952000838B55569144695F88C3023B962
S315080033D04FF45A710A4801F0A7FD002305F1900041
S315080033E085F88C30FDF7C6F808B1FFF7F7FE636875
S315080033F01BB100212046A2689847002038BD00BFAF
S315080034008F71000838B50446007DFDF7E1FB20B151
S3150800341040F22B41084801F087FD2046FFF742FE9F
S315080034200546207DFDF7F4FB20B14FF4866102487E
S3150800343001F07AFD284638BD8F7100082DE9F04F56
S315080034409946002304468BB008910692C9F80030C5
S31508003450D9F80060069B9D1B00F0BC80089B9E194E
S3150800346000F0B8802046FFF7CDFF8046002840F0E0
S31508003470B1802046FFF78EFE226D904240F2B3805F
S31508003480801A854228BF054694F89AA0BAF1000F1B
S3150800349000F0E98002F04CFF236D0790204609935F
S315080034A0FFF71AFE2F46099B834658198342D4F81C
S315080034B09C1040F0B380D4E9122313448B4208BF12
S315080034C0C4F89C20D4F89C108A4201D88B4204D8B0
S315080034D040F23B51854801F027FD079802F023FF8B
S315080034E0DA46207DFDF774FB20B140F279417F482A
S315080034F001F01AFD2046FFF7EFFD06462046FFF7C6
S3150800350049FE236D8346984240F2BC8026B140F2BC
S315080035108341764801F008FDA26C236DAEB2934252
S3150800352040F0A880099304F1280823691022002195
S315080035304046079301F0AFFF3021079B013EE36247
S31508003540099BC6F30A062363237D36014B4328F0FD
S31508003550030803F1A04346F0407648F0020203F55B
S315080035608023A6621A67236DD4E912122B440A44F3
S31508003570934208BF0B469342236504D340F2D641D3
S315080035805A4801F0D1FC236D9B4505D101232046FD
S3150800359084F85430FFF75CFE207DFDF739FB20B137
S315080035A04FF49E61514801F0BFFC94F89A303BB144
S315080035B0BAF1000F04D0236E112120465B689847A4
S315080035C0D9F8003037B1069A3B449342C9F800301F
S315080035D0FFF43EAFD9F80030002B14BF00201B20A3
S315080035E00BB0BDE8F08FD4E912310B449A4204D3EC
S315080035F040F261413D4801F097FCD4E91232134488
S31508003600226D9B1A9D4228BF1D46002D7FF43CAFB4
S3150800361040F20F51354801F087FC35E701335A1E51
S31508003620914210D1C4F89C3013F8012C112A01D00C
S31508003630132A14D1013FA2F111014A424A41D04648
S3150800364084F8A02032E713F8012C02F0FD011129B5
S3150800365006D1013FB8F1000F3FF428AFEBE7D0469B
S3150800366006F8012B22E72A463046216D01F01EFF97
S315080036702F4636E7238DC3F30A12164466F30E1354
S31508003680238570E7207D96B93023584300F1A04082
S3150800369000F58020426E436EC2F30A1223F4FF43FC
S315080036A02A4423F0700343EA021343665BE7104B90
S315080036B0049403930023CDE90153012300935A464A
S315080036C02369216801F0A0FC20B140F2C2410748F5
S315080036D001F02AFC3022237D534303F1A04303F56E
S315080036E080235A6E22F480125A663CE78F710008CE
S315080036F0095200082DE9F84F90F8949004460D46B3
S315080037001646B9F1000F40F0A38090F8998002F0B0
S315080037100FFE94F89530074673B194F898305BB16C
S3150800372084F8959002F0FBFD01218146084602F0D7
S3150800373001FB484602F0EEFD384602F0F4FDDFF8DC
S3150800374014912E44B54205D1236E012120469B686B
S31508003750984723E094F89A306BB12046FFF752FE5B
S31508003760F8B1D4F89C20236D9A4204D040F2CD21BA
S31508003770484601F0D9FB94F8A030002BE2D0236E1E
S315080037802F462A785B68B8F1000F59D1236E204678
S315080037905B683978013598470028D3D00020BDE802
S315080037A0F88F02F0C5FD0746207DFDF711FA20B116
S315080037B040F2D321274801F0B7FB2046FFF7EAFC81
S315080037C0A26C00F1FF3A924538BFE36C207D3CBFFE
S315080037D003F1FF3302EB030A94F854B0FDF718FA25
S315080037E020B140F2DF211B4801F09EFBD4F89C1063
S315080037F0BBF1000F22D0236D994204D04FF43971E2
S31508003800144801F091FB384602F08DFDB3E7A26C2F
S315080038109A4202D9E36C013B13448B420BD013F84E
S315080038200129112A01D0132AF1D1A2F111035A4212
S315080038305A4184F8A020C4F89CA0E4E75346ECE774
S315080038400A2AA3D10D212046984700289ED0A5E72D
S315080038500E20A4E78F710008F0B50C4615460646FB
S31508003860A422002189B0204601F015FE2746AC4661
S31508003870BCE80F000FC7DCF8003005F1140C3B60FC
S3150800388004F16407BCE80F000FC7DCF80030EA6AE9
S315080038903B60AB6AC4E9132395F83020A36484F827
S315080038A0992095F83320C4F89C30012384F89A208F
S315080038B084F8A03084F85430AB6B236695F8313021
S315080038C084F898303F4B346073603F4BB3603F4B8E
S315080038D0F3603F4B73613F4BB3613F4B3361FDF779
S315080038E01DF910B13D4B98420ED1002107A8FDF7EE
S315080038F09DF8014640B9079B07A82375FDF796F87A
S3150800390028B1207DFDF7E4F8102009B0F0BD0127A5
S31508003910079B84F87830324B7362324B84F8A17077
S31508003920F361314B95F83210336284F8960084F8C7
S315080039309570204601F0C3FCAB6B93F91100FFF7B5
S3150800394077F9AB6B93F91100FFF740F9207DFDF786
S315080039503FF90028D8D1254B0494CDE90203E36C3E
S31508003960CDE900732369A26C2168207D01F04CFB28
S315080039700028C9D13022237D4FF48011534342F2E7
S31508003980640203F1A04303F580239950AB6B93F9C6
S315080039901000FFF74DF9AB6B93F91000FFF716F916
S315080039A004F1900001F0C1FA3046FFF779F9204694
S315080039B0FFF74EFC207DFDF72BF9003818BF0120D4
S315080039C00001A2E7F5360008795200083D340008E0
S315080039D0F7510008FD510008F1390008038000F08E
S315080039E025310008BF520008035200080952000892
S315080039F070B50468054694F89460002E45D101F028
S31508003A008CFCFFF759F9854202D13046FFF748F991
S31508003A10236E93F91000FFF70BF9236E93F9100044
S31508003A20FFF7B6F8236E93F91100FFF701F9236E35
S31508003A3093F91100FFF7ACF8207D01F0D7FF20B10C
S31508003A4040F29721144801F06FFA207DFDF740F8FF
S31508003A5020B140F29B21104801F066FAFDF716F8EE
S31508003A6038B10E4B984204D040F29F210A4801F023
S31508003A705BFA0023C5E90033C5E90533EB60236E1D
S31508003A802046BDE87040DB68184740F266210248C8
S31508003A9001F04AFA0F2070BD8F710008058000F00A
S31508003AA070B505682C7D2046FDF792F820B140F2E6
S31508003AB06B11184801F038FA3023174E03FB0463DC
S31508003AC0DA6E164B9A420FD12846FFF705FBB0B1BE
S31508003AD002F02EFC0123124AA3405365A2F5805238
S31508003AE09362536302F01FFC2046FDF791F878B104
S31508003AF0BDE870404FF4C371064801F015BA284670
S31508003B00FFF7D0FA0028EFD10123A340B364EBE70F
S31508003B1070BD00BF8F7100080000045059150020C1
S31508003B2000200450F8B5044602F002FC94F89530DB
S31508003B300546E3B9236E9B6823B940F24A210E482D
S31508003B4001F0F2F90127236E00219B682046984769
S31508003B5084F8957002F0E3FB06460021384602F029
S31508003B60E9F8304602F0D6FB022384F8A13028464D
S31508003B70BDE8F84002F0D7BB8F7100080346054A36
S31508003B800549106803448B428CBF4FF0FF30136021
S31508003B90704700BFA41500200000042038B5416016
S31508003BA0044602F0BCFB054621460448FCF7C0FC67
S31508003BB02846BDE8384002F0ADBB00BFD41200204D
S31508003BC038B5054602F0ABFB044629460348FCF720
S31508003BD0E1FC2046BDE8384002F09CBBD412002028
S31508003BE010B5094B1B786BB1084C237853B102F01A
S31508003BF079F90023064A237013700123054A1370C6
S31508003C00054A137010BD00BF621500205F1500201D
S31508003C105E1500205B1500205A150020034B1B7803
S31508003C2013B10122024B1A70704700BF62150020BB
S31508003C305F15002070B502F07BFB144E05463478FC
S31508003C40FCB9134B1C60134B1C60134B1C6000F033
S31508003C502BF8012002F0F3FB02F0F8FA0F4B0246AC
S31508003C60186020B9284602F05EFB232070BD234663
S31508003C7040F2E7310A4800F015FA0A4B18600123AA
S31508003C803370284602F04FFB0020EFE76815002046
S31508003C90F4120020F0120020FC120020F812002076
S31508003CA018FCFFFFEC12002010B5002486B0142281
S31508003CB0214601A88DF8004001F0EDFB01231348C9
S31508003CC08DF8043002F03FFBBFF34F8F6846FEF7CE
S31508003CD00DFE204601A98DF80440FEF719FE204680
S31508003CE00F2101F03DFF0F21204601F047FFFEF7A7
S31508003CF0E3FD01F00BFF064B43209C61FEF798FF9E
S31508003D004320FEF763FF06B010BD00BF6C6E0008C7
S31508003D1000800A5008B5094802F015FB40F6016212
S31508003D2000210220FEF716FA4FF4927200210220B3
S31508003D30FEF73EFA0022024B9A6408BD706E000830
S31508003D4000900A5010B5044601F0D6FD4FF47A7279
S31508003D509042B0FBF2F105D23621BDE810400C487E
S31508003D6001F0E2B80B4BB3FBF1F30B49884201D9DA
S31508003D703C21F2E702FB04F0B0FBF3F0022806D977
S31508003D80BDE810400323B0FBF3F0FCF7F1B910BD12
S31508003D901874000840420F00E7CD9A3B064B1B6893
S31508003DA01A7A022A04D812B11B68044A13607047AB
S31508003DB0032AF9D0704700BFA81500200013002079
S31508003DC070B5A2B01C2200210CA801F064FB224B9E
S31508003DD000240B934FF4E1330D9302238DF8393009
S31508003DE01E4BCDE902440F9305238DF84230062376
S31508003DF08DF844304FF470230494019313AD01AE4B
S31508003E000FCE0FC5164BCDE907442B60154B099409
S31508003E10069318AD06AE0FCE0FC52022124B1348D7
S31508003E202B60134B13A91D93124B2094CDE91E2327
S31508003E30114B0BAA2193114BFEF7C8FF044618B184
S31508003E40BA210F4801F070F800214FF4E13001F073
S31508003E50B6F8204622B070BDA06E00087C6E000839
S31508003E603C00015B01000F004400015BC013002009
S31508003E706915002000010100BC150020041300206C
S31508003E80A874000829B9074B186803684BB1FFF7EF
S31508003E9007BE012905D1034B186803680BB101F069
S31508003EA04ABA7047D015002008B504490448FFF7F8
S31508003EB075FEBDE80840FFF783BF00BFD415002094
S31508003EC0E81300200148FFF7BBB800BFC013002065
S31508003ED00422024BC3F8D020704700BF00D003501D
S31508003EE00422024BC3F8D020704700BF00E00350FD
S31508003EF070B50D4604461146002879D00378012B83
S31508003F0021D0022B42D0002B5CD1FFF7E1FF00291C
S31508003F106ED00123374C03704560FFF7E1FF364941
S31508003F20206801F020F93549206801F01CF900F0F5
S31508003F30FFFF00F0FEFF2A463149206801F013F919
S31508003F40304920681EE0FFF7CBFF4368EB1A836011
S31508003F5000294DD10223274E03702749C5603068D2
S31508003F6001F001F92549306801F0FDF800F0E0FF9D
S31508003F7000F0DFFF24492A46A368306801F0F3F809
S31508003F8020493068BDE8704001F0EDB8FFF7A8FF9A
S31508003F9042F20F72C368EB1A934229D90023154CD3
S31508003FA00370FFF795FF1449206801F0DCF8134900
S31508003FB0206801F0D8F800F0BBFF00F0BAFF2A46E7
S31508003FC01249BAE700230B4C0370FFF781FF10492B
S31508003FD0206801F0C8F80F49206801F0C4F800F01D
S31508003FE0A7FF00F0A6FF0C49206801F0BCF8A7E778
S31508003FF070BD00BF181000201A7500082775000844
S315080040002C75000852750008577500089C7500083D
S31508004010DF750008EB750008F0750008F8B501F0C3
S3150800402099F901F0A2F901F0A9F901F0B4F9012111
S315080040303A20FDF713F9FFF7FDFD01230222184682
S315080040401146154DFDF770FE0123042202210320B7
S31508004050FDF76AFE6C6F114801F0A1F96FEA940149
S315080040600F4801F0010101F0A1F90D4F0B4E02F0C6
S31508004070D2F902F017F8696F04466FEA9101024611
S3150800408001F00101384601F097F92146024630460B
S31508004090FFF72EFFEBE700BF00C00350F813002020
S315080040A0F013002053B94AB9002908BF00281CBFDD
S315080040B04FF0FF314FF0FF3000F082B9ADF1080C38
S315080040C06DE904CE00F006F8DDF804E0DDE9022328
S315080040D004B070472DE9F04F099D0C46002B4DD1D1
S315080040E08A420F4684469646B2FA82F360D94BB1A5
S315080040F002FA03FEC3F120029F4000FA03FC20FAED
S3150800410002F217434FEA1E461FFA8EF44FEA1C4284
S31508004110B7FBF6F106FB117701FB04F042EA07420A
S31508004120904208D91EEB020201F1FF3702D29042F3
S3150800413000F231813946121A1FFA8CFCB2FBF6F0EE
S3150800414006FB102200FB04F44CEA024C644508D92D
S315080041501EEB0C0C00F1FF3202D2644500F21E8100
S31508004160104640EA0140ACEB040C002125B12CFABC
S3150800417003F30022C5E90032BDE8F08F8B4205D96A
S315080041800DB1C5E9000100210846F5E7B3FA83F148
S3150800419000294DD1A342C0F0F380904280F0F08010
S315080041A0064623460846002DE6D0C5E90063E3E740
S315080041B0002B40F0A3808A1A4FEA1E471FFA8EF694
S315080041C00121B2FBF7F407FB14204FEA1C4242EA2E
S315080041D0004206FB04F090420FD91EEB020204F1DE
S315080041E0FF382CBF4FF001094FF00009904203D960
S315080041F0B9F1000F00F0CC804446121A1FFA8CFC65
S31508004200B2FBF7F007FB102200FB06F64CEA024C5D
S31508004210664508D91EEB0C0C00F1FF3202D2664542
S3150800422000F2B3801046ACEB060C40EA04409DE76A
S31508004230C1F120068B4004FA01FE22FA06F720FA9D
S3150800424006FCF4408A401F434EEA0C0300FA01FEBE
S315080042504FEA17484FEA13491FFA87FCB4FBF8F0F0
S3150800426008FB104449EA044400FB0CF9A1450ED9A1
S315080042703C1900F1FF3A2CBF4FF0010B4FF0000B31
S31508004280A14503D9BBF1000F00F08B805046A4EB83
S3150800429009041FFA83F9B4FBF8F308FB134403FB7C
S315080042A00CFC49EA0444A44506D93C1903F1FF3835
S315080042B001D2A4457BD8434643EA0040A4EB0C044C
S315080042C0A0FB02984445CC46434602D306D1CE45C8
S315080042D004D20138B9EB020C68EB0703002D6CD049
S315080042E0BEEB0C0264EB030422FA01F304FA06F6A9
S315080042F0CC4000211E43C5E900643DE702FA03FEEF
S31508004300C3F1200104FA03F200FA03FCCC404FEA99
S315080043101E4720FA01F11FFA8EF6B4FBF7F00A439E
S3150800432007FB1044110C41EA044100FB06F48C42D9
S315080043300ED91EEB010100F1FF382CBF4FF0010921
S315080043404FF000098C4202D9B9F1000F2CD0404633
S31508004350091B92B2B1FBF7F407FB141142EA0142BA
S3150800436004FB06F1914207D91EEB020204F1FF385D
S3150800437001D291421ED84446521A44EA004120E727
S31508004380861A64EB030301200DE7F44402384AE772
S31508004390023C724431E702397244CCE6F4440238EE
S315080043A0DFE602383C4472E702387144D0E7023B44
S315080043B03C4481E7023C7244DEE72946DCE600BF5E
S315080043C0704700BF08B5064B044613B10021AFF38A
S315080043D00080044B1B6803B19847204600F0F3FEA3
S315080043E00000000040150020002310B50446836035
S315080043F0818119464366C28108228361C0E9003378
S31508004400C0E904335C3001F046F80D4B2462636260
S315080044100C4BA3620C4BE3620C4B23630C4B9C4284
S3150800442006D003F16802944202D0D0339C4205D1EB
S3150800443004F15800BDE8104001F035B810BD00BFC2
S3150800444011540008335400086B5400088F540008B0
S3150800445008140020024A0349034800F0BBBF00BF06
S31508004460DC15002003570008EC15002041680C4BAA
S31508004470994210B5044601D001F043F9A168094BE9
S31508004480994202D0204601F03CF9E168064B994270
S3150800449004D02046BDE8104001F033B910BD00BF76
S315080044A00814002070140020D814002010B50B4BF7
S315080044B004210B4C0B4A20461A600022FFF794FF92
S315080044C004F1680001220921FFF78EFF04F1D000EC
S315080044D002221221BDE81040FFF786BF40150020D2
S315080044E00814002055440008014800F0DDBF00BF4D
S315080044F08A150020014800F0D8BF00BF8A150020A1
S3150800450010B50446FFF7F0FF236A1BB1BDE810405B
S31508004510FFF7F0BF044B2362044B1B68002BF5D151
S31508004520FFF7C4FFF2E700BF6D44000840150020FE
S315080045302DE9F7431D46574B04460E461F6890461D
S3150800454027B13B6A13B93846FFF7DAFFB8F1020F0D
S3150800455006D0B8F1010F00F29980002DC0F29680BE
S31508004560636ED90705D4A3899A0502D4A06D00F015
S315080045709BFF2146384601F0C4F8616B41B104F14E
S315080045804403994202D0384600F0FAF800236363E0
S315080045900023A3616360A3891B0603D521693846F6
S315080045A000F0EEF8A389B8F1020F23F44A6323F06A
S315080045B00303A38160D001AB6A462146384601F061
S315080045C0C8F8A3891843A0812DBB009D284600F092
S315080045D021F90646002851D1DDF80090A9453FD1BA
S315080045E04FF0FF35B4F90C3043F00202A2810022E5
S315080045F0A26004F147022260226101226261626EB2
S31508004600D60704D4980502D4A06D00F04EFF2846BC
S3150800461003B0BDE8F083002ED8D03B6A13B93846FC
S31508004620FFF76EFFB8F1010F266002BFA38943F0BA
S315080046300103A381B4F90C3013F00802C4E9046538
S315080046401ED0D90745BF00226D42A560A26048BFAB
S31508004650A561626ED20701D49B0513D50025D6E75E
S31508004660484600F0D7F806460028B9D0A3894D4633
S3150800467043F08003A381D0E70025B3E7A946F5E711
S31508004680A260E6E7A06D00F010FFE7E74FF0FF3500
S31508004690BDE700BFE81500200B4603490246086837
S315080046A0816800F065B900BFE815002038B5002319
S315080046B0054D044608462B6000F083FD431C02D1D5
S315080046C02B6803B1236038BD4415002038B504466D
S315080046D0064D0846114600222A601A4600F07BFD60
S315080046E0431C02D12B6803B1236038BD4415002052
S315080046F038B50446064D0846114600222A601A4671
S3150800470000F06BFD431C02D12B6803B1236038BD52
S315080047104415002038B50446064D084611460022C1
S315080047202A601A46FEF7A4FC431C02D12B6803B183
S31508004730236038BD4415002070B50D4D00260D4C7C
S31508004740641BA410A64209D10B4D00260B4C01F0A0
S31508004750B7FE641BA410A64205D170BD55F8043BEC
S3150800476001369847EEE755F8043B01369847F2E7D5
S315080047703C1600203C1600203C160020401600205F
S3150800478038B50546002941D051F8043C0C1F002BCA
S31508004790B8BFE41800F0E0F81D4A136833B963603F
S315080047A014602846BDE8384000F0DCB8A34208D9B2
S315080047B0206821188B4201BF19685B6809182160B7
S315080047C0EDE71A465B680BB1A342FAD9116850188F
S315080047D0A0420BD120680144501811608342E0D1F1
S315080047E018685B68084453601060DAE702D90C233E
S315080047F02B60D6E7206821188B4202BF19685B68D0
S315080048000918636008BF21605460CAE738BD00BF55
S315080048104C150020024B0146186800F025B800BF69
S31508004820E815002070B50F4E0C460546316811B9DB
S3150800483000F05AFB30602146284600F055FB431C21
S3150800484003D14FF0FF34204670BDC41C24F0030486
S31508004850A042F8D0211A284600F046FB0130F2D1D2
S31508004860EFE700BF481500202DE9F041CD1C0646AC
S3150800487025F0030508350C2D38BF0C25002D01DB66
S31508004880A94204D90C2333600020BDE8F081314FDA
S3150800489000F062F83B681C4644BB29463046FFF7E1
S315080048A0C1FF431C044650D13C682146002941D12A
S315080048B0002C44D02368304604EB030800F014FBB0
S315080048C080453CD1216830466D1A2946FFF7AAFF74
S315080048D0013034D023682B4423603B68002B36D044
S315080048E05A68A24229D100225A600EE02268521B59
S315080048F01DD40B2A16D96119A342256018BF596021
S31508004900636808BF396062514B60304600F02AF888
S3150800491004F10B00231D20F00700C21AB5D01B1A9C
S31508004920A350B2E7A3426268DED13A60EDE72346B8
S315080049306468B1E70C464968B8E71346CEE70C2326
S315080049403046336000F00EF89EE70560DDE75B60F1
S31508004950FFDE00BF4C150020014800F0A5BD00BFD2
S3150800496089150020014800F0A0BD00BF8915002068
S315080049702DE9F04F0D469DB014469846064618B1E7
S31508004980036A0BB9FFF7BCFD6B6ED90705D4AB8973
S315080049909A0502D4A86D00F087FDAB891B0701D5DF
S315080049A02B699BB92946304600F026FA70B16B6E22
S315080049B0DC0704D54FF0FF301DB0BDE8F08FAB899A
S315080049C09805F7D4A86D00F070FDF3E70023CDF83D
S315080049D00C804FF00109DFF8B481099320238DF884
S315080049E0293030238DF82A3023469A4613F8012BAE
S315080049F00AB1252AF9D1BAEB040B0BD05B4622463D
S31508004A002946304600F076FD013000F0A780099A65
S31508004A105A4409929AF80030002B00F09F80002330
S31508004A204FF0FF320AF1010A049307938DF85330C9
S31508004A301A93CDE9052354460522544814F8011B58
S31508004A4000F026FF049AD8B9D10644BF20238DF872
S31508004A505330130744BF2B238DF853309AF8003090
S31508004A602A2B15D0079A544600204FF00A0C2146E7
S31508004A7011F8013B303B092B4BD9B0B1079214E032
S31508004A80A0EB0803A24609FA03F313430493D2E7FB
S31508004A90039B191D1B68002B0391BBBF5B4242F0A9
S31508004AA0020207930793B8BF049223782E2B0AD1E4
S31508004AB063782A2B32D1039B02341A1D1B6843EAFA
S31508004AC0E37303920593DFF8D4A0032221785046B6
S31508004AD000F0DEFE38B1A0EB0A004022049B013448
S31508004AE082401343049314F8011B062228488DF8C4
S31508004AF0281000F0CDFE00283FD0264B1BBB039B99
S31508004B00073323F0070308330393099B3B440993B0
S31508004B106AE70CFB02320C460120A8E700230134A1
S31508004B204FF00A0C19460593204610F8012B303A27
S31508004B30092A03D9002BC6D00591C4E70CFB01212D
S31508004B4004460123F0E703AB2A4604A9304600933E
S31508004B50114BAFF300800746781CD6D16B6ED90788
S31508004B6005D4AB899A0502D4A86D00F09EFCAB89E2
S31508004B705B063FF51FAF09981EE703AB2A4604A953
S31508004B8030460093044B00F00BF8E4E7157600086E
S31508004B901F76000800000000F55400081B76000880
S31508004BA02DE9FF470F7E914680460C46782F9A4698
S31508004BB00C9E01F1430207D8622F0AD8002F00F095
S31508004BC0DD80582F00F0C38004F1420684F8427055
S31508004BD03AE0A7F16303152BF6D801A151F823F0A3
S31508004BE0394C00084D4C0008C94B0008C94B000851
S31508004BF0C94B0008C94B00084D4C0008C94B0008B2
S31508004C00C94B0008C94B0008C94B0008634D00088A
S31508004C10DB4C00081B4D0008C94B0008C94B0008AF
S31508004C20854D0008C94B0008DB4C0008C94B000835
S31508004C30C94B0008234D000833681A1D1B683260EB
S31508004C4004F1420684F842300123A8E0316823685B
S31508004C50081D30601E0601D50D6803E05D06FBD50C
S31508004C60B1F90050002D616878DA2D200029A1607D
S31508004C7084F843002DDA6D425D480A231646B5FBD3
S31508004C80F3F103FB1157C75D06F8017D2F460D4664
S31508004C90BB42F4D9082B0BD12368DF0708D5236953
S31508004CA061689942DEBF302306F8013C06F1FF36FB
S31508004CB0921B22614B4603AA21464046CDF800A026
S31508004CC000F02AFC01306FD14FF0FF3004B0BDE888
S31508004CD0F08723F004032360CDE7216833680806CC
S31508004CE053F8045B02D4490648BFADB26F2F336050
S31508004CF03F4814BF0A230823002184F84310666836
S31508004D00002EA660BADB216821F004012160002D7F
S31508004D10B4D1002EB2D11646BCE7236843F020036F
S31508004D20236078273348236884F845701F0631685E
S31508004D3051F8045B02D45F0648BFADB23160D907AB
S31508004D4044BF43F0200323601DB11023D4E728484D
S31508004D50E9E7236823F020032360F6E724480A23BB
S31508004D60CDE733682568181D616930602E061B6813
S31508004D7001D5196002E06806FBD51980002316469E
S31508004D80236197E7336800211A1D32601E6862683E
S31508004D90304600F07DFD08B1801B606063682361C2
S31508004DA0002384F8433085E723693246494640465E
S31508004DB0D047013088D023689B0714D4E068039B4A
S31508004DC09842B8BF184681E701233246494640460D
S31508004DD0D04701303FF478AF0135E36803995B1A91
S31508004DE0AB42F1DCEAE7002504F11906F5E700BF56
S31508004DF0267600083776000838B5294B05460C464E
S31508004E00186818B1036A0BB9FFF77AFBB4F90C30C6
S31508004E10190722D4DA0607D409222A6043F0400388
S31508004E204FF0FF30A38133E0580712D5616B41B1CB
S31508004E3004F14403994202D02846FFF7A1FC002357
S31508004E406363A38923F02403A38100236360236992
S31508004E502360A38943F00803A38123694BB9A38977
S31508004E6003F42073B3F5007F03D02146284600F0EB
S31508004E7095FCB4F90C3013F001020AD00022A260A6
S31508004E8062695242A261226942B913F08000C5D113
S31508004E9038BD990758BF6269A260F4E70020F7E7B2
S31508004EA0E815002038B50023064D04460846114685
S31508004EB02B6000F089F9431C02D12B6803B12360EB
S31508004EC038BD00BF4415002038B50023054D0446FB
S31508004ED008462B6000F07DF9431C02D12B6803B10C
S31508004EE0236038BD4415002038B50023054D044617
S31508004EF008462B60FEF742FE431C02D12B6803B11D
S31508004F00236038BD441500200F207047FEE70023B4
S31508004F109A4200D1704710B550F8234041F8234013
S31508004F2001339A42F8D110BDFEE7002303607047AB
S31508004F307047704770B5002506462C46052C20D8C4
S31508004F40DFE804F003070B0F13175B210820FBF7B4
S31508004F50A5FB0C210820FBF7A1FBD1210820FBF7B4
S31508004F609DFB80210820FBF799FB00210820FBF711
S31508004F7095FB6C1C2946E4B208202546FBF78EFBF8
S31508004F800624A4F10E03012B05D85A210820FBF7A5
S31508004F9085FB0134D2E7102C05D1BDE870405D21B0
S31508004FA00820FBF77BBBB31F195DEFE708B50820A0
S31508004FB000F013F8BDE80840082000F019B80123EE
S31508004FC007B520F07F4040EA81700190684600935B
S31508004FD0FFF7B0FF03B05DF804FB4FF06042012312
S31508004FE0D2F8001E83400B430020C2F8003E7047EB
S31508004FF04FF060410122D1F8003E824023EA0203C5
S315080050000020C1F8003E704710B588B004460E98D7
S31508005010009207900D98224606909DF8300005905C
S315080050200B9804909DF8280003900020CDE90130E4
S315080050300B460121FBF73CFC08B010BD7047436DD9
S315080050400B42FCD1704708B54368DA0714D5836864
S31508005050DB0702D50369D90707D50A2350218363DD
S31508005060FFF7EDFF836C9A07FCD1012200F5005388
S315080050705A6043689B07FCD408BD836C5B06FCD565
S315080050804164704770B5054614460E4601F047F967
S315080050902B685C4034405C402C60BDE8704001F0F1
S315080050A039B970B5054614460E4601F038F92B682D
S315080050B05C4034405C402C60BDE8704001F02AB981
S315080050C000F000B800207047FDF7F4BCFDF72EBDD0
S315080050D070B50C46154610B9FDF7EEFD38B14368B4
S315080050E02BB12A462146BDE87040006818472320A0
S315080050F070BDF7B50D4616461C4648B103B901AC56
S31508005100C7685FB12346324629460068B84706E0B5
S31508005110FDF7D2FD04B901AC0028F1D1232003B074
S31508005120F0BDF8B50C461546064658B9FDF7C4FD58
S3150800513020462946FFF7B0FA0446002CD4BF37208C
S315080051400020F8BDFDF7B8FD86420746F0D0304688
S31508005150FDF7A6FD29462046FFF79EFA044638467F
S31508005160FDF79EFDE9E70EB403B503AA52F8041B42
S315080051700192FFF7D6FF02B05DF804EB03B0704763
S31508005180D0F8A4301B689A6C120643BFDB6B00206C
S315080051900B701B207047D0F8A43001221B6819B188
S315080051A003F580531A65704703F500531A65DA64E8
S315080051B0704708B5D0F8A4301868FFF75EFF0020DE
S315080051C008BD00207047FEE74FF4005300204B60EF
S315080051D07047012070470020704707B5002001ABD3
S315080051E00190FFF786FF0198002808BF4FF0FF30AF
S315080051F003B05DF804FB80F89910704790F89900A1
S31508005200704790F89600704792F8543037B51446B0
S3150800521033B1936D0BB1D06D9847002384F85430A1
S3150800522094F89A301BB32046FDF756FFF8B1236E63
S31508005230132120465B6898471025236E20461B6875
S315080052400DF10701984778B99DF8073003F0FD027C
S31508005250112A05D1A3F111025342534184F8A03013
S31508005260013D15F0FF05E8D12046FDF7F1FF0020C6
S3150800527084F8540003B030BD90F8943070B50546F4
S315080052800C46C3B10B69B3F5006F16D801F050F898
S3150800529095F88C30064665614BB1214605F19000BC
S315080052A0FBF756F9304601F03EF8002070BD20465F
S315080052B0FDF794FFF6E70E20F8E72120F6E7F8B5A4
S315080052C004460D4601F034F894F896300646ADB11A
S315080052D07BB994F8983063B101F021F801210546AD
S315080052E0084600F027FD284601F014F8012384F843
S315080052F096303046BDE8F84001F015B8002BF8D0D6
S3150800530001F00DF807462946012000F013FD38463E
S3150800531001F000F884F89650EBE738B548B1002458
S31508005320056801F005F8C5E9164400F0FCFF2046BB
S3150800533038BD2220FCE70068FDF78ABF10B500F0EB
S31508005340EEFF044600F0CAFC2046BDE8104000F017
S31508005350E1BF704708B5FBF76FF8FFF7B1FEFFF737
S31508005360B3FEBDE80840FBF75BB808B5FBF730F9B4
S31508005370FBF7E0F9BDE80840FFF718BE08B5FFF7E8
S31508005380C3FDFDF7E7FAFDF783FEFEF78DFDBDE8E1
S315080053900840FEF703BDFBF713B9FEF793BD20B12E
S315080053A00023C0E901330370C360704718B10023B6
S315080053B0017041704360704728B143788B4203D02F
S315080053C042604170007870474168521A312A88BF96
S315080053D00370F7E72DE9F843074688461446002682
S315080053E0D4E90195B9F1010905D52468002CF7D14E
S315080053F03046BDE8F883AB89012B07D9B5F90E30DD
S31508005400013303D029463846C04706436835E9E7DD
S3150800541010B50C46B1F90E10FFF76AF90028ABBFB4
S31508005420636DA3891B1823F48053ACBF6365A381FE
S3150800543010BD2DE9F0411F468B8905460C46DB0554
S31508005440164605D502230022B1F90E10FFF73EF9DC
S31508005450A3893246B4F90E10284623F48053A38153
S315080054603B46BDE8F041FFF755B910B50C46B1F912
S315080054700E10FFF72BF9431CA38915BF606523F4AB
S31508005480805343F48053A38118BFA38110BDB1F99B
S315080054900E10FFF70BB902440346934200D170473A
S315080054A003F8011BF9E77047704770470A44431E23
S315080054B0914200D1704710B511F8014B914203F89B
S315080054C0014FF9D110BD9368013B002B936010B4CE
S315080054D008DA9469A34201DB0A2903D15DF8044B73
S315080054E000F098B91368581C1060084619705DF8E2
